:0300230002044A8A
:10044A00C0E0C0F0C083C082C0D0E8C0E0E9C0E02C
:10045A00EAC0E0EBC0E0ECC0E0EDC0E0EEC0E0EFE7
:10046A00C0E0309827E508C39440501EE4FF120606
:10047A00FCC298530C3F74CF250CF582E43400F586
:10048A0083E599F0050C05088002D202E50960238C
:10049A003099227F011206FCC299C200530B1F74C5
:1004AA000F250BF582E43401F583E0F599050B1568
:1004BA00098002C299D0E0FFD0E0FED0E0FDD0E092
:1004CA00FCD0E0FBD0E0FAD0E0F9D0E0F8D0D0D010
:0804DA0082D083D0F0D0E032A3
:060C6F00750E32D20022D6
:0D0C37007F011206FC120C6FC2ACD2992294
:100907007D057C007F06120BC8A299B350077F06AE
:10091700120BE050F47D057C007F06120BC830995E
:10092700077F06120BE050F6C204E4F50CF50AF552
:0E09370008F50FF50DF50BF509C299D2AC22AB
:1004E200E5086019D204530A3F74CF250AF582E465
:1004F2003400F583E0F50F050A15088002C20430C6
:100502000005D50E02D299E5097009309906E50E6B
:100512007002C29930015D7F011206FC9000CCE0AE
:10052200FBA3E0FAA3E0F91207C9FF60459000CBF4
:10053200E0FE90012FE0C39E5038E509C3941F509E
:1005420033530D1F740F250DF582E43401F583EF4B
:10055200F0050DE5097008A299B35003120C6F055E
:10056200099000CDE475F00112080F90012FE0040C
:05057200F022C201228D
:100B8E00A201B350189000CCEBF0A3EAF0A3E9F069
:0F0B9E009000CBEDF0E490012FF0D20122C322A2
:100ABA00E509C3941F5022530D1F740F250DF582AB
:100ACA00E43401F583EFF0050DE5097008A299B346
:0D0ADA005003120C6F0509D322D203C32272
:100B3E008B108A118912E4FEAB10AA11A9128E82B3
:100B4E007583001207E2FF600EEEC39D5009120A74
:080B5E00BAB340030E80E1224E
:1008C600C204E4F50CF50AF508F50FFF7F40900029
:1008D600CFE4F0A3DFFCC202E4F50DF50BF509C287
:1008E60000750E32FF7F2090010FE4F0A3DFFCC2FB
:1008F60003C2019000CCE4F0A3F0A3F09000CBF08B
:0109060022CE
:100C0900EE700CEF24FE6005047004C322A20122D9
:1009F800E4F5A8F5B8C2D3C2D4759850D2B0D2B134
:100A0800C29975892153877F758BFB758DFBD28EB3
:100A180075CAFF75CBF3F5C8D2CAD2ADC2CFD2AC76
:030A2800D2AF2228
:0F0C19001209F81208C6120B13120A5D020769BE
:10057700120C371209077B007A007900E4FD120B91
:100587008EE4FFFE120C09E4FF120945E4FF12098D
:1005970082E4FF1206FC120B1312060CE4FF12088A
:1005A70025E4FBFDFF120C50E4FBFDFF120C5B1270
:1005B7000026120C75120C7A120C7F120C84120C86
:1005C70089E4FF120C8EE4FF120C93E4FF120C98DF
:1005D700E4FF120C9DE4FF120CA2E4FF120CA7E447
:1005E700FF120BF77B007A007900E4FD120B3E7BCC
:1005F700007A007900E4FD12087A7B007A0079001E
:05060700E4FD020B669A
:100A8C00E46003120577120C19120769300407AFE2
:100A9C000F120A2BC204300508120AE7120ABAC256
:0E0AAC00051204E21209BF12060CB29680DE9B
:10094500EFB408005036900952F828287302096A56
:1009550002096D020970020973020976020979021A
:10096500097C02097FC28022C28122C28222C283FF
:0D09750022C28422C28522C28622C28722AD
:10098200EFB40800503690098FF82828730209A79F
:100992000209AA0209AD0209B00209B30209B602AC
:1009A20009B90209BCD28022D28122D28222D28308
:0D09B20022D28422D28522C28622C2872250
:1006FC00EFB408005066900709F828287302072108
:10070C0002072A02073302073C02074502074E0282
:10071C0007570207609001447405F0C280229001D3
:10072C00457405F0C281229001467405F0C2822204
:10073C009001477405F0C283229001487405F0C201
:10074C0084229001497405F0C2852290014A7405F7
:0D075C00F0C2862290014B7405F0C2872286
:100B1300D280D281D282D283D284D285D286D28726
:100B2300E4900144F0A3F0A3F0A3F0A3F0A3F0A397
:0B0B3300F0A3F07D64FC7F08020BC8FB
:10060C007F08120BE05071900144E0600714F0E099
:10061C007002D280900145E0600714F0E07002D2C5
:10062C0081900146E0600714F0E07002D2829001E4
:10063C0047E0600714F0E07002D283900148E0605C
:10064C000714F0E07002D284900149E0600714F0C6
:10065C00E07002D28590014AE0600714F0E070026D
:10066C00D28690014BE0600714F0E07002D2877DD7
:09067C000A7C007F08120BC82261
:10082500EFB40800504E900832F828287302084AA1
:1008350002085002085602085C02086202086802B3
:10084500086E020874900144E0FF22900145E0FF24
:1008550022900146E0FF22900147E0FF22900148E7
:10086500E0FF22900149E0FF2290014AE0FF22903B
:05087500014BE0FF2231
:10087A00C2089000C9E0C39405503B9000C6E075D9
:10088A00F00584AFF0EFF075F003A424B6F582E426
:10089A003400F583EBF0A3EAF0A3E9F074022FF534
:1008AA0082E43400F583EDF09000C9E004F0900092
:0C08BA00C6E004F0D208A208E433FF22DC
:100A2B009000CAE0C394A050259000B5E075F0A0EB
:100A3B0084E5F0F0E02412F582E43400F583EFF066
:100A4B009000B5E004F09000CAE004F0D322D20687
:020A5B00C322B4
:100B66008B108A118912E4FEAB10AA11A9128E828B
:100B76007583001207E2FF600EEEC39D5009120A4C
:080B86002BB340030E80E122B5
:10000300E4FF9000CAE060179000B4E075F0A084AC
:10001300E5F0F0E02412F582E43400F583E0FF22FA
:100BAD009000CAE060149000B4E075F0A084E5F008
:0B0BBD00F0E004F09000CAE014F02209
:090C6600900000E004F002031507
:10031500D208E4FF2008030203AF9000C5E075F0A2
:100325000584E5F0F0E0FE2402F582E43400F5836F
:10033500E0FD6053900000E0FCC3ED9C9000C8F028
:100345006023EE75F003A424B6F582E43400F5834A
:10035500E0FBA3E0FAA3E0F98C827583001207E2C3
:10036500FFC20880AF9000C9E0600E9000C5E004B0
:10037500F09000C9E014F08007C208E49000C8F0CE
:10038500E4900000F0808DC208E49000C8F0900071
:1003950000F09000C9E070030203199000C5E00465
:0B03A500F09000C9E014F002031922E0
:10002E00E4F510900007E024CE70030201DD2431C8
:10003E00B4070040030201F490004DF82828730223
:10004E0000620200770200AA0200E1020130020102
:10005E00670201BB7F071206FC7DC87C007F091278
:10006E000BC8900007E004F0229000C9E07004A3D2
:10007E00E060187F071206FCD2A1D2A07DC87C00DA
:10008E007F09120BC8900007E004F07F09120BE005
:10009E0040030201F99000077432F02230A12330A0
:1000AE00A0207F071206FCD2A2C2A3C2A4C2A5D270
:1000BE00A0C2A17DC87C007F09120BC8900007E08A
:1000CE0004F07F09120BE040030201F9900007745F
:1000DE0032F022A2A0B350397F071206FC9000CA5C
:1000EE00E060071200038F1080051203158F10E5D4
:1000FE0010A2E492A2A2E592A3A2E692A43392A544
:10010E00D2A17DC87C007F09120BC8900007E004C5
:10011E00F07F09120BE040030201F99000077432E0
:10012E00F02230A12330A0207F071206FCC2A2C20B
:10013E00A3C2A4C2A5D2A0C2A17DC87C007F091211
:10014E000BC8900007E004F07F09120BE040030299
:10015E0001F99000077432F022A2A0B350417F073C
:10016E001206FC9000CAE0600A1200038F10120BF8
:10017E00AD80081203158F10120C66E5101392A2B3
:10018E00E510A2E192A3A2E292A4A2E392A5D2A1CB
:10019E007DC87C007F09120BC8900007E004F07F39
:1001AE0009120BE050459000077432F02230A01176
:1001BE00D2A1D2A0D2A2D2A3D2A4D2A5E4900007FB
:1001CE00F07F09120BE050239000077432F0227F6B
:1001DE00071206FCD2A0D2A1D2A2D2A3D2A4D2A53B
:0C01EE00E4900007F022E4900007F022EB
:0F0C28009000B3E004F09000C7E004F0D2052282
:10068500C2099000C7E0C3940A50679000B3E075B3
:10069500F00A84E5F0F030082BE02408F582E43414
:1006A50000F583E0FF53070F30A50343078030A40F
:1006B5000343074030A30343072030A20343071039
:1006C500EFF0802C9000B3E02408F582E43400F5C7
:1006D50083E0FF5307F030A50343070830A4034325
:1006E500070430A30343070230A203430701EFF0D9
:0706F500D209D205A209227F
:1001FA00900001E024FE603E14606E147003020257
:10020A00A11470030202D124D370030202F824312C
:10021A00600302030F7F061206FCD2A0D2A1D2A26B
:10022A00D2A3D2A4D2A57DC87C007F09120BC890A4
:10023A000001E004F022A2A0B3501D30A11A7F06EB
:10024A001206FCA2A29207C2A17DC87C007F0912F5
:10025A000BC8900001E004F07F09120BE040030292
:10026A0003149000017432F02230A01D7F0612069A
:10027A00FCA2079208120685D2A17DC87C007F09DC
:10028A00120BC8900001E004F07F09120BE0507ACB
:10029A009000017432F022A2A0B3501D30A11A7F3F
:1002AA00061206FCA2A29207C2A17DC87C007F09A1
:1002BA00120BC8900001E004F07F09120BE0504ACB
:1002CA009000017432F02230A0167F061206FCA2BA
:1002DA00079208120685120C28D2A1E4900001F0B8
:1002EA007F09120BE050239000017432F0227F073D
:1002FA001206FCD2A0D2A1D2A2D2A3D2A4D2A5E441
:0B030A00900001F022E4900001F022BE
:100AE700E4FF9000C7E060239000B2E075F00A844D
:100AF700E5F0F0E02408F582E43400F583E0FF90A8
:0C0B070000B2E004F09000C7E014F022FF
:10076900E49000C6F09000C5F09000C9F090000038
:10077900F09000C8F09000B3F09000B2F09000C77C
:10078900F0C207C2059000B5F09000B4F09000CA1D
:10079900F0C206FF7F0A900008E4F0A3DFFCE4FF43
:1007A9007F05900002E4F0A3DFFCD2A0D2A1D2A27F
:1007B900D2A3D2A4D2A5E4900001F0900007F022C0
:1009BF009000C9E07004A3E06008900007E07002A7
:1009CF0004F0900007E0FF7010A2A0B3500B30A10D
:1009DF0008900001E0700204F0EF600302002E9017
:0909EF000001E060031201FA228C
:03002B000203B01D
:1003B000C0E0C0F0C083C082C0D0E8C0E0ECC0E0C4
:1003C000EFC0E030CF6EE4FFEF25E02430F582E4AB
:1003D0003401F583E0FCA3E04C6013EF25E024300A
:1003E000F582E43401F58374FFF5F012080F0FBFB6
:1003F0000AD6E5136004151380387513647819065E
:10040000E6D3943B402C76001806E6D3943B40227A
:1004100076001806E6D39417401876001806E6D33F
:10042000941E400E76001806E6D3940C4004760025
:100430001806C2CFC2CED0E0FFD0E0FCD0E0F8D0AA
:0A044000D0D082D083D0F0D0E0329B
:100BC800EFC3940A5011EF25E02430F582E4340194
:080BD800F583ECF0A3EDF0221F
:100BE000EF25E02430F582E43401F583E0FEA3E054
:070BF0004E6002C322D32274
:100BF700EF25E02430F582E43401F583E0FEA3E03D
:020C0700FF22CA
:100A5D0075CAFF75CB87751364E4FF7F1490013061
:100A6D00E4F0A3DFFCE4F5C8D2CAD2ADC2CFC2CE4A
:0F0A7D007816F618F618F67819F618F618F62205
:0B0C50007817A60708A60508A60322D7
:0B0C5B007814A60708A60508A60322CF
:050026007817E6FF223F
:050C75007818E6FF22E3
:050C7A007819E6FF22DD
:050C7F007814E6FF22DD
:050C84007815E6FF22D7
:050C89007816E6FF22D1
:050C8E007817A6072203
:050C93007818A60722FD
:050C98007819A60722F7
:050C9D007814A60722F7
:050CA2007815A60722F1
:050CA7007816A60722EB
:03000000020C44AB
:0C0C4400787FE4F6D8FD758121020A8C4F
:1007C900BB010689828A83E0225002E722BBFE022E
:0907D900E32289828A83E4932261
:1007E200BB010CE58229F582E5833AF583E02250CC
:1007F20006E92582F8E622BBFE06E92582F8E22216
:0D080200E58229F582E5833AF583E493222F
:10080F00C5F0F8A3E028F0C5F0F8E5821582700274
:06081F001583E038F02211
:00000001FF
